:100000000C949F000C94C7000C94C7000C94C7007C
:100010000C94C7000C94C7000C94C7000C94C70044
:100020000C94C7000C94C7000C94C7000C94C70034
:100030000C94C7000C94C7000C94C7000C94C70024
:100040000C944B070C94C7000C9497030C94E50395
:100050000C94C7000C94C7000C94C7000C94C70004
:100060000C94C7000C94C700555443746F536964D3
:100070006572616C00696E636F72726563740031E2
:1000800000213D0078005369646572616C54696DAC
:1000900065546573742E696E6F002C206C696E65F3
:1000A0002000292C2066696C6520003D0020280076
:1000B0002920003D003A2028006661696C656400D3
:1000C00070617373656400417373657274696F6EF8
:1000D000200020746573742873292E0020736B69C7
:1000E000707065642C206F7574206F662000206628
:1000F00061696C65642C20616E64200020706173FE
:100100007365642C2000546573742073756D6D6184
:1001100072793A2000206661696C65642E00207057
:1001200061737365642E0020736B69707065642E53
:100130000054657374200000AA024A05A30211242A
:100140001FBECFEFD4E0DEBFCDBF11E0A0E0B1E035
:10015000E2EDFCE102C005900D92A237B107D9F79C
:1001600012E0A2E7B1E001C01D92A435B107E1F7AA
:1001700011E0CCE3D1E004C02297FE010E94580EAA
:10018000C833D107C9F70E94A0050C945C0E0C94EB
:100190000000CF93DF93BC018230910510F462E040
:1001A00070E0A0915202B0915302ED01E0E0F0E066
:1001B00040E050E021C0888199818617970769F453
:1001C0008A819B81309719F09383828304C0909336
:1001D000530280935202FE0134C06817790738F445
:1001E0004115510519F08417950708F4AC01FE017B
:1001F0008A819B819C01E9012097E9F6411551050F
:10020000A9F1CA01861B970B049708F4BA01E0E034
:10021000F0E02AC08D919C91119784179507F9F40D
:100220006417750781F412968D919C9113973097FE
:1002300019F09383828304C09093530280935202F7
:10024000FD0132964CC0CA01861B970BFD01E80FD9
:10025000F91F6193719302978D939C9340C0FD01A8
:10026000828193819C01D9011097A1F6809150025F
:1002700090915102892B41F48091040190910501E4
:1002800090935102809350024091060150910701D2
:100290004115510541F44DB75EB78091020190912F
:1002A0000301481B590B2091500230915102CA01A1
:1002B000821B930B8617970780F0AB014E5F5F4F51
:1002C0008417950750F0420F531F509351024093EB
:1002D0005002F9016193719302C0E0E0F0E0CF01B8
:1002E000DF91CF910895CF93DF93009709F450C029
:1002F000EC0122971B821A82A0915202B091530204
:10030000109709F140E050E0AC17BD0708F1BB833E
:10031000AA83FE0121913191E20FF31FAE17BF07AF
:1003200079F48D919C911197280F391F2E5F3F4FC3
:100330003983288312968D919C9113979B838A838E
:100340004115510571F4D0935302C093520220C05D
:1003500012968D919C911397AD01009711F0DC01DD
:10036000D3CFFA01D383C28321913191E20FF31FDE
:10037000CE17DF0769F488819981280F391F2E5F16
:100380003F4FFA01318320838A819B81938382834B
:10039000DF91CF910895FB01DC0102C001900D9225
:1003A00041505040D8F70895FC0180E191E09183DD
:1003B000808342835383648375830895FC0180E1C5
:1003C00091E0918380830895FC0180E191E0918325
:1003D0008083CF010E94B0050895FC01DB0140E05D
:1003E000208131818D919C912817390709F041E0D6
:1003F000842F08950F931F938C0184E491E0F801FA
:1004000091838083C8010E94C308C8010E94B0057F
:100410001F910F910895FC0184E491E09183808302
:10042000CF010E94C30808950F931F938C0184E4A9
:1004300091E0F80191838083C8010E94C308C8013C
:100440000E94B0051F910F910895FC0184E491E092
:1004500091838083CF010E94C30808950E94EA0A15
:10046000089589E192E040E855E260E070E00E9482
:10047000200489E192E00E9448058823D1F3089581
:10048000EF92FF920F931F9381E080938E018093F0
:100490008F0180ED8093900110928C0110928B015E
:1004A000EAE8F1E01082CF010E94000D7B018C018F
:1004B00086E090E00E94B305B801A7010E94D40134
:1004C0001F910F91FF90EF9008950F931F9381302C
:1004D000910541F0892B19F46F5F7F4FF9F01F915F
:1004E0000F9108956F5F7F4FD1F782E791E068E643
:1004F00070E00E94E10C86E291E09093730180939A
:1005000072018EE791E065E770E00E94E10C88E1FE
:1005100091E090937F0180937E01E1CF04E411E0AC
:1005200010937F0100937E018EE791E00E94C30843
:10053000109373010093720182E791E00E94C30857
:100540001F910F91089580E090E06FEF7FEF0E9480
:100550006502089581E090E06FEF7FEF0E946502F1
:100560000895DF93CF9300D000D0CDB7DEB781E000
:1005700090E09A8389839C838B83CE010196BE0190
:100580006D5F7F4F0E94ED01882349F580914602FF
:1005900090914702009711F00E944A08809108014B
:1005A00084FFBDC08091090184FD0AC0E09146022C
:1005B000F0914702309709F4B2C0838584FFAFC041
:1005C00080910A0190910B0167EC70E00E94E005B8
:1005D00080910A0190910B0169EB70E020C080913D
:1005E000080185FF9CC08091090185FD0AC0E0914A
:1005F0004602F0914702309709F491C0838585FF48
:100600008EC080910A0190910B0167EC70E00E940E
:10061000E00580910A0190910B0160EC70E00E946E
:10062000E00580910A0190910B0165EB70E00E945A
:10063000E00580910A0190910B0164E870E00E944E
:10064000E00580910A0190910B0163EB70E00E943C
:10065000E00569817A8180910A0190910B014AE05D
:1006600050E00E94220780910A0190910B0160EBFB
:1006700070E00E94E00580910A0190910B0161E811
:1006800070E00E94E00580910A0190910B016DEAF3
:1006900070E00E94E00580910A0190910B016FE7E4
:1006A00070E00E94E00580910A0190910B016BEAD5
:1006B00070E00E94E0056B817C8180910A0190913D
:1006C0000B014AE050E00E94220780910A019091BC
:1006D0000B0162EA70E00E94E00580910A019091AE
:1006E0000B0166E870E00E94E00580910A0190919C
:1006F0000B016AE970E00E94E00580910A01909187
:100700000B016AE170E04AE050E00E94D10680915E
:100710000A0190910B0160E071E00E9438070F9090
:100720000F900F900F90CF91DF91089508951F9231
:100730000F920FB60F9211242F933F934F938F93E5
:100740009F93EF93FF938091C00082FD1DC0409165
:10075000C6002091D1013091D2012F5F3F4F2F73FE
:1007600030708091D3019091D4012817390771F02E
:10077000E091D101F091D201EF56FE4F40833093CA
:10078000D2012093D10102C08091C600FF91EF9168
:100790009F918F914F913F912F910F900FBE0F908E
:1007A0001F901895E0912502F0912602E05CFF4F22
:1007B0008191919120813181821B930B8F73907075
:1007C000892B11F00E94960308951F920F920FB685
:1007D0000F9211242F933F938F939F93EF93FF9347
:1007E0002091150230911602809117029091180203
:1007F0002817390731F48091C1008F7D8093C100A3
:1008000014C0E0911702F0911802EB52FE4F2081C4
:10081000809117029091180201968F7390709093B7
:100820001802809317022093C600FF91EF919F91C9
:100830008F913F912F910F900FBE0F901F901895A1
:10084000AF92BF92DF92EF92FF920F931F93CF93DD
:10085000DF93EC017A018B01DD24D39491E0A92E82
:10086000B12CEC89FD89DD2069F0C50108A002C02A
:10087000880F991F0A94E2F7808360E874E88EE19C
:1008800090E005C0108260E472E48FE090E0A8017F
:1008900097010E94200E2150304040405040569514
:1008A00047953795279580E12030380720F0DD20E7
:1008B00011F0DD24D6CFE889F9893083EA89FB89F4
:1008C000208319A2EE89FF89408121E030E0C9012F
:1008D0000C8C02C0880F991F0A94E2F7482B4083C2
:1008E000EE89FF894081C9010D8C02C0880F991FD4
:1008F0000A94E2F7482B4083EE89FF894081C901C1
:100900000E8C02C0880F991F0A94E2F7482B40838F
:10091000EE89FF8980810F8C02C0220F331F0A9459
:10092000E2F7209528232083DF91CF911F910F912B
:10093000FF90EF90DF90BF90AF900895DC011C9680
:10094000ED91FC911D97E05CFF4F219131918081E9
:100950009181281B390B2F733070C9010895DC0178
:100960001C96ED91FC911D97E05CFF4F2081318139
:10097000E054F040DF01AE5BBF4F8D919C91119729
:100980002817390719F42FEF3FEF07C08D919C917D
:10099000E80FF91F8081282F30E0C9010895DC019C
:1009A0001C96ED91FC911D97E05CFF4F20813181F9
:1009B000E054F040DF01AE5BBF4F8D919C911197E9
:1009C0002817390719F42FEF3FEF10C08D919C9134
:1009D0001197E80FF91F20818D919C911197019635
:1009E0008F73907011969C938E9330E0C901089597
:1009F000DC0191968C919197882339F05496ED9172
:100A0000FC915597808186FFF9CF91961C920895AD
:100A1000CF93DF93EC01EE85FF85E05CFF4F2081F3
:100A20003181E054F0402F5F3F4F2F733070DF0172
:100A3000AE5BBF4F8D919C91119728173907D1F369
:100A4000E05CFF4F80819181E054F040E80FF91F96
:100A50006083EE85FF85E05CFF4F31832083EE8964
:100A6000FF89208181E090E00F8C02C0880F991FE0
:100A70000A94E2F7282B208381E089A3EC89FD8981
:100A800080818064808381E090E0DF91CF91089540
:100A900081E0089510921C0210921B0288EE93E0F0
:100AA000A0E0B0E080931D0290931E02A0931F026D
:100AB000B093200284E391E090931A02809319028C
:100AC00081E991E0909326028093250285ED91E0E3
:100AD000909328028093270285EC90E090932A025D
:100AE0008093290284EC90E090932C0280932B0257
:100AF00080EC90E090932E0280932D0281EC90E0A8
:100B00009093300280932F0282EC90E09093320217
:100B10008093310286EC90E090933402809333020C
:100B200084E08093350283E08093360287E08093EF
:100B3000370285E08093380281E08093390208957E
:100B4000CF93DF930E949F070E943102C2EDD3E052
:100B50000E942E022097E1F30E94D203F9CF08955C
:100B60000E94730108950E94C9000895CF92DF92F8
:100B7000EF92FF920F931F93CF93DF937C016B0152
:100B80008A01C0E0D0E00FC0D6016D916D01D701A0
:100B9000ED91FC910190F081E02DC7010995C80FFE
:100BA000D91F015010400115110571F7CE01DF91D9
:100BB000CF911F910F91FF90EF90DF90CF9008950C
:100BC000EF92FF920F931F93CF93DF937C018B01E2
:100BD000C0E0D0E0F8010F5F1F4F6491662359F029
:100BE000D701ED91FC910190F081E02DC7010995AD
:100BF000C80FD91FEFCFCE01DF91CF911F910F9179
:100C0000FF90EF9008959C01DB01ED91FC91019024
:100C1000F081E02DCB01B90109950895EF92FF9283
:100C20000F931F938C01DC01ED91FC910190F081F9
:100C3000E02D6DE009957C01D801ED91FC910190CA
:100C4000F081E02DC8016AE009959C012E0D3F1D41
:100C5000C9011F910F91FF90EF900895EF92FF92BD
:100C60000F931F937C010E94E0058C01C7010E9435
:100C70000E069C01200F311FC9011F910F91FF909B
:100C8000EF900895CF93DF93EC016115710519F48E
:100C900020E030E00FC0DB010D900020E9F7119754
:100CA000A61BB70BE881F9810280F381E02DAD012D
:100CB00009959C01C901DF91CF9108954F925F92F0
:100CC0007F928F929F92AF92BF92CF92DF92EF92DC
:100CD000FF920F931F93DF93CF93CDB7DEB7A1970A
:100CE0000FB6F894DEBF0FBECDBF2C01742ECB0122
:100CF000223008F42AE019A231E2C32ED12CCC0E06
:100D0000DD1E822E9924AA24BB24672D752FA501F0
:100D100094010E94200E79018A01C801B701A50142
:100D200094010E94EE0D472D461B0894C108D1087E
:100D30004A3014F4405D01C0495CF6014083E1147F
:100D4000F1040105110521F07E2C5F2DC801DDCFD6
:100D5000C201B6010E944206A1960FB6F894DEBF0A
:100D60000FBECDBFCF91DF911F910F91FF90EF90FC
:100D7000DF90CF90BF90AF909F908F907F905F90CB
:100D80004F900895DC012115310541F4ED91FC915E
:100D90000190F081E02D642F099508950E945E0670
:100DA0000895EF92FF920F931F939A017B0100E049
:100DB00010E0B801A7010E94C2061F910F91FF9099
:100DC000EF900895CF92DF92EF92FF920F931F93CF
:100DD000CF93DF93EC016A017B012115310541F4CA
:100DE000E881F9810190F081E02D642F09951FC001
:100DF0002A303105D1F477FF17C0E881F9810190DD
:100E0000F081E02D6DE209958C0144275527BA0148
:100E10004C195D096E097F09CE012AE00E945E0629
:100E20009801280F391F04C02AE00E945E069C0129
:100E3000C901DF91CF911F910F91FF90EF90DF904B
:100E4000CF900895EF92FF920F931F937B019A0129
:100E50000027F7FC0095102FB801A7010E94E206B9
:100E60001F910F91FF90EF9008950E944206089500
:100E7000EF92FF920F931F937C010E9442068C0118
:100E8000C7010E940E06080F191FC8011F910F917C
:100E9000FF90EF9008951F920F920FB60F921124BA
:100EA0002F933F934F935F936F937F938F939F9372
:100EB000AF93BF9320913F02309140024091410295
:100EC0005091420270914302DA01C9010296A11DBC
:100ED000B11D672F6A5F6D3730F06D57DA01C901B8
:100EE0000396A11DB11D6093430280933F0290932E
:100EF0004002A0934102B093420280913B02909144
:100F00003C02A0913D02B0913E020196A11DB11D8F
:100F100080933B0290933C02A0933D02B0933E022B
:100F2000BF91AF919F918F917F916F915F914F9101
:100F30003F912F910F900FBE0F901F9018957894AE
:100F400084B5826084BD84B5816084BD85B58260CE
:100F500085BD85B5816085BDEEE6F0E0808181606C
:100F60008083E1E8F0E0108280818260808380816C
:100F700081608083E0E8F0E0808181608083E1EB44
:100F8000F0E0808184608083E0EBF0E0808181602C
:100F90008083EAE7F0E080818460808380818260E2
:100FA00080838081816080838081806880831092CB
:100FB000C1000895DF93CF9300D0CDB7DEB79A83F9
:100FC0008983E981FA8184E691E0918380830F909F
:100FD0000F90CF91DF910895DF93CF9300D000D091
:100FE000CDB7DEB79A8389837C836B8389819A81AD
:100FF0000E94DA07E981FA818EE591E0918380838E
:101000008B819C81AA2797FDA095BA2FB068E981B2
:10101000FA8182839383A483B5830F900F900F90FE
:101020000F90CF91DF910895DF93CF9300D000D040
:10103000CDB7DEB79C838B8384E492E09A83898367
:101040001CC0E981FA81208131818B819C81281724
:10105000390761F4E981FA810190F081E02D828104
:101060009381E981FA81918380830DC0E981FA81BE
:101070008081918102969A838983E981FA818081B6
:1010800091810097F1F60F900F900F900F90CF91F4
:10109000DF910895DF93CF9300D0CDB7DEB79A8369
:1010A0008983E981FA8184E084830F900F90CF9146
:1010B000DF910895DF93CF9300D0CDB7DEB79A8349
:1010C00089830F900F90CF91DF910895DF93CF9395
:1010D00000D0CDB7DEB79A838983E981FA81808118
:1010E0009181FC0138960190F081E02D89819A81EF
:1010F0000995E981FA818481813021F4E981FA81BD
:1011000083E084830F900F90CF91DF910895DF9358
:10111000CF9300D0CDB7DEB79A838983E981FA8176
:1011200082E591E09183808389819A810E941408ED
:1011300081E090E0882321F089819A810E94B005A6
:101140000F900F90CF91DF910895DF93CF9300D050
:10115000CDB7DEB79A838983E981FA8182E591E090
:101160009183808389819A810E94140880E090E0B5
:10117000882321F089819A810E94B0050F900F90F9
:10118000CF91DF910895DF93CF9300D0CDB7DEB735
:101190009A838983E981FA8182E591E09183808352
:1011A00089819A810E94140880E090E0882321F0D0
:1011B00089819A810E94B0050F900F90CF91DF91A5
:1011C0000895DF93CF9300D0CDB7DEB79A8389839C
:1011D000E981FA8184E491E09183808389819A8115
:1011E0000E94C30881E090E0882321F089819A81E0
:1011F0000E94B0050F900F90CF91DF910895DF937B
:10120000CF9300D0CDB7DEB79A838983E981FA8185
:1012100084E491E09183808389819A810E94C3084C
:1012200080E090E0882321F089819A810E94B005B6
:101230000F900F90CF91DF910895DF93CF93CDB7AB
:10124000DEB72B970FB6F894DEBF0FBECDBF9F83DE
:101250008E83E0914602F091470284811D828330A3
:1012600011F481E08D83E0914602F0914702848180
:101270001C82843011F481E08C83E0914602F0916D
:10128000470284811B82823011F481E08B838D813F
:10129000882331F48C81882319F48B81882319F0F9
:1012A00081E08B8701C01B868B858A838A81882396
:1012B00009F4F1C08D81882349F080914A02909110
:1012C0004B02019690934B0280934A028C818823B3
:1012D00049F080914C0290914D02019690934D02FD
:1012E00080934C028B81882349F080914E0290912B
:1012F0004F02019690934F0280934E02198289818A
:10130000882331F58B8191E08927882321F580910D
:101310000801882F90E0887090700097E1F080912C
:101320000901882F90E088709070009789F480916F
:10133000460290914702009771F0E0914602F091C9
:1013400047028385882F90E088709070009719F08D
:1013500081E08A8701C01A868A85898389818823EA
:1013600031F58D8191E08927882321F5809108014D
:10137000882F90E0847090700097E1F080910901CF
:10138000882F90E084709070009789F480914602D5
:1013900090914702009771F0E0914602F091470268
:1013A0008385882F90E084709070009719F081E019
:1013B000898701C01986898589838981882331F5C8
:1013C0008C8191E08927882321F580910801882F5D
:1013D00090E0827090700097E1F080910901882F71
:1013E00090E082709070009789F48091460290910D
:1013F0004702009771F0E0914602F0914702838521
:10140000882F90E082709070009719F081E08887B3
:1014100001C018868885898389818823E1F14091FC
:101420000A0150910B0181E391E09C01CA01B901CD
:101430000E94E00540910A0150910B018E819F812D
:101440009C012B5F3F4FCA01B9010E9403068B81AB
:10145000882349F080910A0190910B0127E231E045
:10146000B9010E942E068D81882349F080910A01DE
:1014700090910B012EE131E0B9010E942E068C8182
:10148000882349F080910A0190910B0125E131E018
:10149000B9010E942E068091440290914502009766
:1014A00009F08FC080910801882F90E081709070C2
:1014B000882309F486C080910901882F90E081700B
:1014C0009070882399F4809146029091470200978A
:1014D00009F477C0E0914602F09147028385882F96
:1014E00090E081709070882309F46BC040910A01EC
:1014F00050910B0186E091E09C01CA01B9010E9464
:10150000E00580910A0190910B0120914A023091EF
:101510004B02B9014AE050E00E94D10640910A0115
:1015200050910B018CEF90E09C01CA01B9010E941F
:10153000E00580910A0190910B0120914C023091BD
:101540004D02B9014AE050E00E94D10640910A01E3
:1015500050910B018EEE90E09C01CA01B9010E94EE
:10156000E00580910A0190910B0120914E0230918B
:101570004F02B9014AE050E00E94D10640910A01B1
:1015800050910B018CED90E09C01CA01B9010E94C1
:10159000E00580910A0190910B0120914802309161
:1015A0004902B9014AE050E00E94D10640910A0187
:1015B00050910B0182ED90E09C01CA01B9010E949B
:1015C0002E062B960FB6F894DEBF0FBECDBFCF917F
:1015D000DF910895DF93CF9300D0CDB7DEB784E4D9
:1015E00092E09A83898363C0E981FA818081918145
:1015F0009093470280934602E0914602F0914702A1
:101600008481813089F4E0914602F0914702808123
:101610009181FC0132960190F081E02D809146028B
:1016200090914702099523C0E0914602F09147024C
:1016300084818823E1F4E0914602F0914702019011
:10164000F081E02D0190F081E02D80914602909193
:1016500047020995E0914602F09147028481882370
:1016600031F4E0914602F091470281E08483E091F9
:101670004602F09147028481813091F0E981FA813C
:101680000190F081E02D82819381E981FA8191833B
:10169000808380914602909147020E941D0907C0F5
:1016A000E981FA818081918102969A838983E98117
:1016B000FA8180819181009709F096CF0F900F9069
:1016C000CF91DF910895DF93CF9300D000D000D069
:1016D000CDB7DEB79A8389837C836B83E981FA81F6
:1016E00082819381A481B581BB237CF4E981FA8155
:1016F00082819381A481B5819C018B819C81B901F8
:101700000E94E0059E838D830EC0E981FA8182816B
:101710009381A481B5819C018B819C81B9010E9438
:1017200035079E838D838D819E8126960FB6F89412
:10173000DEBF0FBECDBFCF91DF910895DF93CF9372
:10174000CDB7DEB727970FB6F894DEBF0FBECDBF7B
:101750009A8389837C836B835E834D832F83E981A6
:10176000FA8182819381A481B581BB23B4F4E9819C
:10177000FA8182819381A481B5819C018D819E81B2
:10178000820F931FAC018F81282F30E08B819C81C9
:10179000BA01A9010E94CB0115C0E981FA818281B9
:1017A0009381A481B5819C018D819E81820F931FBD
:1017B000AC018F81282F30E08B819C81BA01A90177
:1017C0000E94CB0127960FB6F894DEBF0FBECDBFA7
:1017D000CF91DF910895DF93CF93CDB7DEB76097B8
:1017E0000FB6F894DEBF0FBECDBF9D878C877F8775
:1017F0006E871B821A828A818370898389818823FC
:10180000B1F48C859D859E012C5F3F4F4A815B81A1
:10181000B90124E00E949E0B8E859F859E01285F62
:101820003F4F4A815B81B90124E00E949E0B898170
:10183000282F30E0CE010496FC01E20FF31F408117
:101840008981282F30E0CE010896FC01E20FF31FBA
:101850008081481718F48FEF888B2AC08981282F40
:1018600030E0CE010496FC01E20FF31F4081898134
:10187000282F30E0CE010896FC01E20FF31F808193
:10188000841718F481E0888B13C08981282F30E0F9
:10189000CE010496FC01E20FF31F8081882311F42E
:1018A000188A06C08A819B8101969B838A83A3CF75
:1018B000888960960FB6F894DEBF0FBECDBFCF917A
:1018C000DF910895DF93CF9300D000D00F92CDB772
:1018D000DEB79C838B83EB81FC81148284E492E0ED
:1018E0009A8389831FC08B819C81AC014B5F5F4FC2
:1018F000E981FA81808191819C012B5F3F4FCA0170
:10190000B9010E94EB0B1D82181614F081E08D8343
:101910008D81882369F4E981FA8180819181029621
:101920009A838983E981FA81808191810097D9F630
:10193000E981FA8180819181EB81FC8193838283AB
:10194000E981FA818B819C81918380838091480217
:1019500090914902019690934902809348020F901A
:101960000F900F900F900F90CF91DF910895DF931C
:10197000CF9300D000D00F92CDB7DEB79A83898382
:101980007C836B834D83E981FA8182E591E09183C9
:10199000808389819A8105962B813C81B9010E94BF
:1019A000EC07E981FA818D81838789819A810E9480
:1019B000620C0F900F900F900F900F90CF91DF91CE
:1019C0000895DF93CF9300D000D0CDB7DEB79A83D0
:1019D00089837C836B8389819A812B813C81B901C6
:1019E0004FE10E94B70CE981FA8184E491E0918390
:1019F00080830F900F900F900F90CF91DF910895FB
:101A00004F925F926F927F928F929F92AF92BF920E
:101A1000CF92DF92EF92FF920F931F93CF93DF93BA
:101A20002C01DC0116961C91612F70E080E090E0A3
:101A300020E833E341EE51E00E94EE0D5B016C01C2
:101A4000212F30E02115310521F1E2EBF7E0E9012A
:101A5000CE54D84FCF0183709070892BB1F4CF0151
:101A600064E670E00E940D0E892B39F4CF0160E925
:101A700071E00E940D0E892B41F480E891E5A1E010
:101A8000B0E0A80EB91ECA1EDB1E3196EC17FD078A
:101A900009F7D20115968C91882E9924B2E08B1605
:101AA00091040CF441C02E54384FC90164E670E033
:101AB0000E940D0E7C01C90160E971E00E940D0ECB
:101AC0008C01C1E0D0E083E0682E712C6222732289
:101AD00015C0FE01EB59FE4F608170E080E090E0A0
:101AE00020E831E541E050E00E94EE0DA60EB71E61
:101AF000C81ED91E2196C815D905B4F4C230D10527
:101B000041F76114710429F7E114F10409F459C093
:101B100080E89BE3A6E2B0E0A80EB91ECA1EDB1E59
:101B20002196C815D90554F3D20112966C9170E034
:101B300080E090E020E13EE040E050E00E94EE0DC9
:101B40007B018C01F201618170E080E090E02CE388
:101B500030E040E050E00E94EE0DE60EF71E081F58
:101B6000191FD2018C91E80EF11C011D111D149654
:101B70006C9170E061507040882777FD8095982FB8
:101B800020E831E541E050E00E94EE0DE60EF71E40
:101B9000081F191FEA0CFB1C0C1D1D1DB701C801F5
:101BA000DF91CF911F910F91FF90EF90DF90CF9039
:101BB000BF90AF909F908F907F906F905F904F906D
:101BC00008950115110509F084CF80E89BE3A6E292
:101BD000B0E0A80EB91ECA1EDB1EA2CF629FD001C4
:101BE000739FF001829FE00DF11D649FE00DF11DD8
:101BF000929FF00D839FF00D749FF00D659FF00D87
:101C00009927729FB00DE11DF91F639FB00DE11D73
:101C1000F91FBD01CF011124089597FB092E072656
:101C20000AD077FD04D02ED006D000201AF470958B
:101C300061957F4F0895F6F7909581959F4F089590
:101C4000A1E21A2EAA1BBB1BFD010DC0AA1FBB1FC0
:101C5000EE1FFF1FA217B307E407F50720F0A21B32
:101C6000B30BE40BF50B661F771F881F991F1A949F
:101C700069F760957095809590959B01AC01BD01C9
:101C8000CF010895AA1BBB1B51E107C0AA1FBB1FB0
:101C9000A617B70710F0A61BB70B881F991F5A95F8
:101CA000A9F780959095BC01CD010895EE0FFF1F17
:101CB0000590F491E02D099411E0CCE3D1E004C04B
:101CC000FE010E94580E2296CE33D107C9F7F89430
:021CD000FFCF44
:101CD2002E002000540200003F0119020000000003
:101CE200DE01E401000000005A0866082502140221
:101CF200B102000000005A0866080B02FA01400215
:101D0200000000000805B6059E04CF04AF04F804E5
:101D1200000000005A086608FF08E108AF0500004D
:101D220000005A08AF05A508870800000000630BF1
:101D320000000000AF051F1C1F1E1F1E1F1F1E1FBD
:021D42001E1F62
:00000001FF
